:020000040800F2
:10000000700A0020F50100085B3E00080F3600086A
:10001000593E000891150008ED4700080000000057
:100020000000000000000000000000006D42000819
:100030009315000800000000BB4100089D42000825
:100040000F0200080F0200080F0200080F0200084C
:100050000F0200080F0200080F0200080F0200083C
:100060000F0200080F0200080F0200080F0200082C
:100070000F0200080F0200080F0200080F0200081C
:100080000F0200080F0200080F0200080F0200080C
:100090000F0200080F0200080F020008F515000803
:1000A0000F0200080F0200080F0200080F020008EC
:1000B0000F0200080F0200080F0200080F020008DC
:1000C0000F0200080F0200080F0200080F020008CC
:1000D0000F0200080F020008E14700080F020008A5
:1000E0000F0200080F0200080F02000800F002F8DB
:1000F00000F070F80AA090E8000C82448344AAF152
:100100000107DA4501D100F065F8AFF2090EBAE84F
:100110000F0013F0010F18BFFB1A43F0010318473B
:100120005C6700007C6700000A444FF0000C10F888
:10013000013B13F0070408BF10F8014B1D1108BF65
:1001400010F8015B641E05D010F8016B641E01F805
:10015000016BF9D113F0080F1EBF10F8014BAD1C55
:100160000C1B09D16D1E58BF01F801CBFAD505E073
:1001700014F8016B01F8016B6D1EF9D59142D6D3CD
:10018000704700000023002400250026103A28BFF5
:1001900078C1FBD8520728BF30C148BF0B607047F9
:1001A000662905F0EB85752900F08280632900F04F
:1001B0002684732900F02B84002070471FB500F0BF
:1001C0002BFC04000020002105F022F8E0601FBD98
:1001D00010B510BD00F024FD1146FFF7EFFF04F04D
:1001E0008DFE00F042FD03B4FFF7F2FF03BC00F008
:1001F00085FD00000948804709480047FEE7FEE703
:10020000FEE7FEE7FEE7FEE7FEE7FEE7FEE7FEE7C6
:1002100004480549054A064B704700001943000889
:10022000ED00000870040020700A00207006002015
:10023000700600200FB41CB5074B06AA7B44694624
:100240000090059800F0B9FB0020694600F0C8FB5B
:100250001CBC5DF814FB0000A107000070B50C4643
:100260000546012A05D02878800600D5EA690023D2
:1002700002E0012305E05B1C934202D2E05C00280F
:10028000F9D1A869E618C01AA861286A184428623A
:100290002846AFF3008004E0D5E9012114F8010BF2
:1002A0009047B442F8D32846AFF3008070BD0000F9
:1002B0002DE9F0410646002410687529314616A53F
:1002C00010D0AFF30080002802DA404213A507E007
:1002D00031688A0701D512A502E0490704D511A5A6
:1002E000012401E0AFF3008000210A2206F1240777
:1002F00009E0B0FBF2FCB0FBF2F302FB1C00303073
:1003000078541846491C0028F3D123462A46304623
:10031000BDE8F04100F0E3B8000000002D0000004F
:100320002B000000200000002DE9F0474FF0000AEC
:1003300089460446C0F820A02046E1688847002886
:1003400076D0252806D0D4E901219047206A401CA8
:100350002062F1E7E168204600258847C4F81CA028
:1003600006460027C4F818A02A2E09D0304604F00B
:10037000BDFD38B304EB8708303EC8F8186019E0BB
:1003800059F8041B204604EB87029161E168884715
:10039000012F064618D1E069002820DA25F0200553
:1003A0001DE0D8F8180000EB800006EB4000303864
:1003B000C8F818002046E1688847064604F096FD14
:1003C0000028EED1012F0AD02E2E08D12046E16858
:1003D00088477F1C0646022F45F02005C4DBA06934
:1003E000002803DA404245F00105A061E80701D08A
:1003F00025F01005B6B1A6F14100192802D8203623
:1004000045F400654A463146204625604D46FFF7D3
:10041000C7FE58B1012806D0ED1D25F0070000F1F8
:10042000080989E704E005F1040985E730468AE711
:10043000206ABDE8F08710B5431C02E010F8011BEC
:1004400071B18107FAD14FF0013202C88C1A8C4386
:1004500014EAC211F9D0C01A0A0603D0C01E10BD9A
:10046000C01A10BD0A0401D0801E10BD0902FCD0C4
:10047000401E10BD4FF0000200B51346944696464C
:10048000203922BFA0E80C50A0E80C50B1F12001A7
:10049000BFF4F7AF090728BFA0E80C5048BF0CC055
:1004A0005DF804EB890028BF40F8042B08BF7047B3
:1004B00048BF20F8022B11F0804F18BF00F8012B25
:1004C000704770477047704710B500F0A9FA006890
:1004D00010BD10B5044600F0A3FA046010BD2DE96C
:1004E000F0470D4699469246044600F124080168FB
:1004F000880604D5E06921F01001216000E00120A8
:10050000A84201DD471B00E00027A1697A1902EB30
:100510000900081AA0612078C00602D42046AFF373
:100520000080002608E0D4E901211AF8060090476F
:10053000206A401C761C20624E45F4DB2078C00601
:100540000AD52046AFF3008006E0D4E9012130202F
:100550009047206A401C2062381EA7F10107F4DC96
:1005600007E0D4E9012118F805009047206A401CF3
:100570002062281EA5F10105F3DC2046AFF30080C0
:100580002078000602D50220BDE8F0870120FBE7B5
:1005900070472DE9FF4F0C461E464FF0FF378BB0DA
:1005A000D2E90001DDF860800A908A46C1F30A555D
:1005B00005B93D46002108464FF00000BAF1000F92
:1005C00000F4400005DA00EB80004FF4400101EA3E
:1005D00050004FEA9059B9F1010F00DDB9460A9871
:1005E00050EA4A000ED044F61050A5F2FF354543BC
:1005F0002F14B8F1000F1ED07542291E1EDDC9F15F
:1006000000021CE0B8F1010F4FF0000001D03021D2
:1006100003E0F24305E02154401CB042FBDB3046CE
:100620000022002121540B99C1F80880C1E9002063
:100630000FB0BDE8F08FBD1B6D1CDEE74A4600DA47
:10064000694206A800F076FA06AB93E8070003AB10
:1006500083E8070050460A9900F057FB8DE8070031
:10066000A0F500501F3800900398002D0ADD42F2DB
:100670001F014A460844002303A90390684600F07E
:10068000C0FD09E0A0F500504A461F38002303A929
:100690000390684600F0CAFD8DE807000004000CD6
:1006A00003D04FF0FF30410800E01046B8F1000FD2
:1006B00003D00022009215461EE0751E05D400F0FE
:1006C000B3F9303262556D1EF9D5B34601220843A5
:1006D00002D000227F1C04E02078302801D10022C3
:1006E0007F1E002A099784D01DE0112D07DA00F043
:1006F0009BF9303262556D1C50EA0102F5D1084376
:1007000002D00098C8B10EE00021681E05E0235C0D
:10071000625C63542254401E491C8142F7DBAB46A5
:10072000A81B401E0990002004F80B000B98099AA2
:10073000C0F80880C0E9002B7AE711264FF00008C6
:1007400057E72DE9F04F88460446D21D22F00701F5
:1007500091B0D1E90001CDE90A0104F083F8024625
:100760000B98C00F01D02D2007E02068810701D52C
:100770002B2002E0202101EAC000032A099001D0C9
:10078000072A05DB03464146204600F093F90BE1BA
:100790002078800601D5E06900E00620B8F1650FF9
:1007A000814606D0B8F1660F18D0B8F1670F70D146
:1007B00031E00020B9F1110F009001DB112301E0BD
:1007C00009F101030AAA01A90CA8FFF7E2FEDDE97D
:1007D0000C70002609F10105834647E001204B46D5
:1007E00000904FF000470AAA01A90CA8FFF7D1FE1C
:1007F000DDE90DB00C995D46002610B909F1010044
:100800000D18B9EB050003D4C0F1FF3609F101055D
:10081000A5EB09002BE0B9F1010F01DA4FF0010956
:100820000020B9F1110F0090484601DD112300E0CE
:1008300003460AAA01A90CA8FFF7ABFEDDE90C707C
:100840004D4600268346207800070AD4AB4500DADF
:100850005D4601A8012D04DD411911F8011C302964
:1008600007D04F4502DA17F1040F04DA012082465F
:100870000FE06D1EEEE7002F02DCED1B3E4403E0AF
:10088000781CA84200DD7D1CB81B00F1010A4FF066
:1008900000472078000703D4AA4501DB4FF0FF3A58
:1008A0000021B7F1004F0DF143088DF8431024D01B
:1008B00002202B23002F01DA7F422D230A21021E62
:1008C000A0F1010000DC5FB197FBF1FC97FBF1F2B6
:1008D00001FB1C7C17460CF1300C08F801CDEEE74B
:1008E000A8F1010003702188090501D5452100E028
:1008F0006521A0F1010800F8011C09980FA9A1EBDE
:100900000807FF1D00B10120411901EBEA70A16940
:100910003844081A401EA0612078C00602D4204640
:10092000AFF30080099828B1D4E901219047206AEB
:10093000401C20622078C00622D52046AFF30080FC
:100940001EE0002E04DBB34502DD01A8805D00E05F
:100950003020D4E901219047206A401C2062761C97
:10096000AAF101005FEA000A0AD100F055F8C06858
:100970000168405CD4E901219047206A401C206254
:10098000281EA5F10105DCDC07E0D4E9012118F8F7
:10099000010B9047206A401C2062381EA7F1010716
:1009A000F3DC2046AFF30080032011B041E60000E5
:1009B00001694A1C02610878704700B58FB0CDE923
:1009C00001310021059105497944CDE90310114613
:1009D0006846FFF7A9FC0FB000BD0000E5FFFFFF70
:1009E0000A6802F8010B0A60704710B5436913B139
:1009F000AFF3008001E0FFF731FC012010BD127859
:100A000000F124010A7000224A700122EDE711680A
:100A10004FF0FF32E9E70000004870472C04002047
:100A2000004870470C04002030B5B0F10A024FEACC
:100A3000900E71F100034EEA817EB0EB0E0061EB87
:100A400091014FEA101E4EEA017E10EB0E0041EBC1
:100A500011114FEA102E4EEA016E10EB0E0041EB21
:100A600011214FEA104E4EEA014E10EB0E0041EB01
:100A70001141401841F100014FEAD00040EA4170B5
:100A80004FEAD10110EB80054FEA810444EA9074EB
:100A900044EB01046D1944EB0404521BA3414FF0D5
:100AA000000348BF0A3200D530BD401C41F10001AF
:100AB00030BD00002DE9F0411F46044603260168C1
:100AC000072A01F4006004DB08B116A505E016A5AD
:100AD00003E008B115A500E015A521F01000206085
:100AE000A069C01EA0610FB1401EA0612046AFF3F7
:100AF00000804FB1D4E9012138469047206A401C5C
:100B00002062C01C206206E0206AFAE7D4E90121D5
:100B100015F8010B9047761EF8D22046AFF30080FF
:100B2000BDE8F0814E414E006E616E00494E4600B8
:100B3000696E66002DE9F047814616468AB0354851
:100B400078440DC88DE80D0032487844801C03AC11
:100B50000DC884E80D0041F69B300844372190FB16
:100B6000F1F290FBF1F5A5F1800501FB12041B3CAD
:100B700002D56442012000E00020DFF898A0804602
:100B80000027FA44AAF1BE0A0EE0E0070AD0324676
:100B9000684607EB470101230AEB810100F046FBA1
:100BA0008DE8070064107F1C002CEED1194F7F44A4
:100BB000AE3F19E0E80715D007EB04100DF1180A55
:100BC00090E80E008AE80E00C068F04201D1981942
:100BD00008903246012306A903A800F027FB03ABC7
:100BE00083E807006D10641C002DE3D14FF0010372
:100BF00032466946B8F1000F03A802D000F001FBAD
:100C000001E000F013FBC9E90001C9F808200AB0AF
:100C1000BDE8F087205D0000004870470C0400200C
:100C20007546FFF7F9FFAE4605006946534620F0CA
:100C30000700854618B020B5FFF7EAFABDE8204066
:100C40004FF000064FF000074FF000084FF0000B88
:100C500021F00701AC46ACE8C009ACE8C009ACE83B
:100C6000C009ACE8C0098D46704710B50446AFF323
:100C700000802046BDE81040FFF7B5BA4FF0013CB8
:100C800050F8042B51F8043B9A4221D1A2EB0C03FB
:100C9000934313EACC1317D150F8042B51F8043BBB
:100CA0009A4215D1A2EB0C03934313EACC130BD158
:100CB00050F8042B51F8043B9A4209D1A2EB0C03E3
:100CC000934313EACC13DBD04FF00000704700BF12
:100CD000D01A01BAB1FA81F101F0180122FA01F03B
:100CE000CB40C1F12001DBB2C0B2C01A2CFA01F333
:100CF000D11A914311EAC311E6D170470149182076
:100D0000ABBEFEE72600020070475FEA400C08BF5A
:100D100091F0000F4FEA8C234FEAC12243EA515170
:100D20004FEA1C5018BF00F5F0404FEA300018BFE2
:100D300041F000415FEA6C5C00F02980BCF1FF3FAC
:100D400008BF40F080407047130C06BF12044FF0FC
:100D5000100C4FF0000C130E04BF12020CF1080C23
:100D6000130F04BF12010CF1040C930F04BF920087
:100D70000CF1020CD30F04BF52000CF1010C114610
:100D80004FF00002A0F11F00A0EB0C00704711F023
:100D9000004F08BF704731F000413FF4D5AF0B0C56
:100DA00006BF09044FF0100C4FF0000C0B0E04BFEF
:100DB00009020CF1080C0B0F04BF09010CF1040C23
:100DC0008B0F04BF89000CF1020CCB0F04BF49004C
:100DD0000CF1010CCCF12003A0EB0C0022FA03F380
:100DE00002FA0CF241EA030100F10100704720F021
:100DF0007F4C80EA030023F07F47ACEB070303F549
:100E00007C5300F0004003F1FF032DE980494FEAD5
:100E1000154B09B44FEA144325EA0B4E24EA034864
:100E20000FF2042606EB132749083E785FEA3202E8
:100E300003FB0667C7F5000707FB06F64FEA5437C2
:100E40004FEAD64606F1020607FB066CCCF1005CC1
:100E50004FEA1C472CEA074C07FB06F40CFB06F58F
:100E600004EB15464FEA961634BF00204FF00040C1
:100E70004FEAD13706FB07FC4FEA1C4C0CFB0BF783
:100E8000D21B03FB0CF761EB07010CFB0EF7B0EB79
:100E9000074072EB17420CFB08F734BFA2EB074286
:100EA000B2EB074261EB17414FEA0C444FEA91075E
:100EB00006FB07FC4FEA1C4C0CFB0BF7B0EBC740E2
:100EC00072EB573203FB0CF734BFA2EBC742B2EB15
:100ED000C74261EB57310CFB0EF7B0EBC70072EB6A
:100EE00057720CFB08F734BFA2EBC702B2EBC70284
:100EF00061EB5771039F4FEA816141EA921104EB64
:100F0000CC044FEAD1374FEA826206FB07FC42EA83
:100F100090124FEA80604FEA1C4C0CFB0BF7D21B7F
:100F200003FB0CF761EB07010CFB0EF7B0EB07407E
:100F300072EB17420CFB08F734BFA2EB0742B2EB8F
:100F4000074261EB17414FEA8C554FEA910704EBDA
:100F50009C2406FB07FC4FEA1C4C0CFB0BF7B0EB88
:100F6000C74072EB573203FB0CF734BFA2EBC7420A
:100F7000B2EBC74261EB57310CFB0EF7B0EBC70089
:100F800072EB57720CFB08F734BFA2EBC702B2EB4F
:100F9000C70261EB577115EB4C254FEA816141EABD
:100FA00092114FEA82624FEAD13742EA901206FB71
:100FB00007FC44F100044FEA80604FEA1C4C0CFB34
:100FC0000BF7D21B03FB0CF761EB07010CFB0EF7D1
:100FD000B0EB074072EB17420CFB08F734BFA2EBF3
:100FE0000742B2EB074261EB174115EB1C154FEAC4
:100FF000813141EA92414FEA823242EA90424FEA1D
:1010000080304FEA0C7644F1000448EA03434EEA8C
:101010000B484FF0000EB2EB080C71EB030724BF36
:10102000624639464EEB0E0E4FF0000B001852414F
:1010300049414BEB0B0BB2EB080C71EB03077BF157
:10104000000B24BF624639464EEB0E0E4FF0000BEC
:101050000018524149414BEB0B0BB2EB080C71EB02
:1010600003077BF1000B24BF624639464EEB0E0EA0
:1010700051EA020718BF46F0010616EB0E7655F14D
:10108000000254F1000103D5BDE88901BDE80088E4
:10109000BDE88901BDE80048B619524141EB0101A4
:1010A000A3F10103704780807F7E7D7C7B7A797815
:1010B000777676757473727171706F6E6E6D6C6C1D
:1010C0006B6A6A69686867666665646463636261BF
:1010D0006160605F5F5E5E5D5D5C5C5B5B5A5A5940
:1010E00059585857575656555555545453535252AC
:1010F0005251515050504F4F4F4E4E4D4D4D4C4C04
:101100004C4B4B4B4A4A4A4949494848484747474C
:101110004746464645454544444444434343434289
:10112000424242414141002B9C4630D477002BD0B3
:101130001CB54FEA370703B44FF010004FF0100111
:10114000BAF1000F06D0BCF1000FDCBF40F0080080
:1011500040F008014FF000000FBCBDE810400BF15B
:10116000010BBBF1010F08BF5FEA170722BF12F1A5
:10117000010211F101014FF0004143F1000300F0C1
:10118000004043EA00007047F9D35708D0E746EA29
:10119000064613F1400F4FEA16461FDD13F1200FEC
:1011A000DFBF16430A46002120335B42BED0C3F1A5
:1011B000200746EA064602FA07F74FEA164646EACD
:1011C0000706C3F1200722FA03F201FA07F721FA12
:1011D00003F14FF0000342EA0702A7E746EA0206DE
:1011E00046EA06464FEA164646EA0106BCBF46EA0C
:1011F0000646360C4FF000034FF000024FF000019E
:1012000094E72DE9804C9A46934670B491E83800F3
:1012100007C831EA400C48BF34EA430C03D5FFF756
:10122000E6FDFFF780FFF0BCBDE8008C2DE9804CA7
:101230009A46934670B491E8380007C810F0804F82
:1012400008BF13F0804F03D100F005F8FFF76BFFE4
:10125000F0BCBDE8008C20F07F4780EA030023F05B
:101260007F4C07EB0C03A3F57C5300F00040A3F187
:10127000FE0392F0000F00F0B38095F0000F00F035
:1012800077802DE901494FEA11404FEA144621EADF
:10129000004800FB06FC24EA064708FB06F607FBAD
:1012A00008F800FB07F718EB06484CEB164C4FEA22
:1012B000124B18EB07484FEA15464CEB174022EA51
:1012C0000B4E0BFB06FC25EA06470EFB06F607FB5A
:1012D0000EFE0BFB07F71EEB064E4CEB164C4FF0C9
:1012E00000061EEB074E4CEB174B18EB0B0840F1BA
:1012F000000018EB0E0B58EB000840F100008F1AAD
:101300004FF000013CBFC943661B14BFB5EB040C92
:1013100000213CBFC943F61B4FEA17444EEA8E0E2C
:1013200027EA04454FEA1C4704FB07622CEA074CF6
:1013300005FB07F70CFB05F604FB0CFC16EB074658
:1013400042EB174216EB0C4642EB1C421BEB060627
:1013500058EB0202414146EA9E0601D5BDE80189EB
:10136000B619524141EB0101A3F10103BDE8018926
:101370004FEA14454FEA114724EA054621EA074C93
:1013800005FB07F406FB07F70CFB06F105FB0CFC5D
:1013900011EB074144EB17444FEA124711EB0C41A4
:1013A00044EB1C4422EA074C05FB07F206FB07F757
:1013B0000CFB06F605FB0CFC16EB074642EB17424E
:1013C00016EB0C4642EB1C456A1854F1000148BF6D
:1013D0007047B619524141EB0101A3F10103704777
:1013E00095F0000F37D04FEA11424FEA144721EA37
:1013F000024624EA074C02FB07F106FB07F70CFB49
:1014000006F402FB0CFC14EB074441EB17414FEAD6
:10141000154714EB0C4441EB1C4125EA074C02FB39
:1014200007F506FB07F70CFB06F602FB0CFC16EBB8
:10143000074645EB174516EB0C4645EB1C421219C7
:1014400051F1000148BF7047B619524141EB01010B
:10145000A3F1010370474FEA14454FEA114724EA0C
:10146000054621EA074C05FB07F106FB07F70CFBD5
:1014700006F24FF0000605FB0CFC12EB074241EBB5
:10148000174112EB0C4251EB1C4148BF70479218B8
:1014900041EB0101A3F101037047000070B5044660
:1014A00000688168C943C90717D1816821F001012B
:1014B000816000F099FD05460AE000BF00F094FD50
:1014C000401B022804D920688068C043C00706D0AA
:1014D00020688068C043C007F0D0002070BDA06ABB
:1014E00040F01000A062E06A40F00100E0620120DC
:1014F00070BD0000F8B500260446009600688168BB
:10150000C943C9072DD0816841F0010181601648A7
:1015100016490068B0FBF1F000E0401E0090002882
:10152000FBD100F061FD054616E000BF00F05CFD58
:10153000401B022810D920688068C043C0070BD028
:10154000A06A40F01000A062E06A40F00100E06292
:1015500084F824600120F8BD20688068C043C0077B
:10156000E4D10020F8BD00007C02002040420F00C2
:1015700000228021014800F031BD00000010014030
:1015800001228021014800F029BD00000010014027
:10159000FEE7704733B581B00D464FF47A740123EE
:1015A00001AAA0210848009400F010FF08B1012012
:1015B0003EBD04232A46A0210348009400F0DEFD2E
:1015C0000028F5D002203EBDE00200201CB5022319
:1015D0008DF804004FF47A708DF80510009001AA80
:1015E000A021034800F0F2FE002800D001201CBD1D
:1015F000E0020020202000F0EDBB72B6FEE7000004
:101600000649074800220B78006823B140F2F31323
:1016100083634A7070478263FBE700000300002089
:101620007C03002010B50421064801F013FD054994
:101630000020096888630246BDE810401021024876
:1016400000F0CCBC7C030020001001400A4A0B488B
:10165000137801682BB140F24D108863012050705F
:1016600070474FF4E1738B630368FA219963006854
:10167000A6218163F2E70000030000207C03002024
:101680000349FA20096888630249022048707047BC
:101690007C03002003000020064907480A78006800
:1016A00022B10022826303204870704740F2F31297
:1016B000F8E70000030000207C0300200F4810B56D
:1016C000017879B100210170407868B101280ED00D
:1016D00002280FD0FFF7E0FFBDE8104010210848B6
:1016E00000F074BC0121EEE7FFF78AFFF4E7FFF793
:1016F000ADFFF1E7FFF7C4FFEEE7000003000020B5
:1017000000100140044B10B51C7804705878087024
:101710009878107010BD000000000020F8B500257A
:101720000446009590F8240001280BD0012084F88D
:1017300024002046FFF7B2FE2046FFF7DBFE06003E
:1017400002D050E00220F8BDA06A20F4885040F09A
:101750000200A062022000F08DFF25490968B1FB5C
:10176000F0F0400000E0401E00900028FBD120680F
:10177000816841F00801816000F036FC074608E00E
:1017800000F032FCC01B0A2803D9206880680007DB
:1017900015D4206880680007F2D42068816841F081
:1017A0000401816000F020FC074612E000F01CFC00
:1017B000C01B0A280DD920688068400709D5A06A97
:1017C00020F0020040F01000A06284F824500120B4
:1017D000F8BD206880684007E8D4A06A20F00200C5
:1017E00040F00100A06284F824503046F8BD0000AB
:1017F0007C020020F8B50024009490F824202546AF
:10180000012A12D0012280F824204A681F23072AC7
:101810000DD20668776B521E02EB820293409F4303
:101820000B6893401F43776319E00220F8BD0668F8
:101830000D2A0AD2376BD21F02EB820293409F43DC
:101840000B6893401F43376309E0F76A0D3A02EBD8
:10185000820293409F430B6893401F43F7620A68DC
:10186000072306680A2A0AD3F7680A3A02EB4202FB
:1018700093409F438B6893401F43F76008E03769AC
:1018800002EB420293409F438B6893401F433761B2
:101890000A68102A01D0112A20D1124B02689A42FC
:1018A00017D193681B0219D4936843F40003936023
:1018B0000968102912D10C490C4A0968B1FBF2F1F0
:1018C00001EB8101490000E0491E00910029FBD194
:1018D00004E0816A41F020018162012480F82450F3
:1018E0002046F8BD002401407C02002040420F0049
:1018F0000068C06C704700002DE9F0414FF0000710
:1019000004003D467ED0A06A002628B9E66284F82D
:101910002460204600F07EF82046FFF7BFFDA16A54
:10192000C90600D420B1A06A40F01000A06269E0AE
:10193000A16A21F4885141F00201A1626268E16963
:10194000237B0A4347EA43010A43A1684FF48077A7
:10195000B94209D0012907D05FF0000194F814C002
:10196000BCF1010F02D00AE03946F7E7F3B1A36AF0
:1019700043F02003A362E36A43F00103E3622368B8
:10198000D3F804C02CF4694C4CEA010CC3F804C031
:1019900021688B68DFF870C003EA0C0313438B6087
:1019A000A168B9420BD0012909D00CE0DFF85CC076
:1019B000A3690CEB43330B4343F40061DFE7218A57
:1019C0000D05A5F580152168CB6A23F470032B4320
:1019D000CB62216889680E4B1940914208D1E662BA
:1019E000A16A21F0020141F00101A162BDE8F0818C
:1019F000A06A20F0020040F01000A062E06A40F00F
:101A00000100E0620120F1E7FDF7E1FF00E0FFFFE8
:101A1000FE0E1FFF10B586B00021009101910291CA
:101A200003911A4C03681A4903221A48A34211D1A0
:101A30008B6943F400738B618B6903F40073049327
:101A40008B6943F004038B61896901F004010491FF
:101A5000102113E0104CA34215D18B6943F480632D
:101A60008B618B6903F4806304938B6943F00403F7
:101A70008B61896901F0040104912021CDE90012F4
:101A8000694600F0B3F906B010BD00000024014023
:101A90000010024000080140002801402DE9F843F1
:101AA00000270D460446009700F09EFA8046206805
:101AB0008168C90508D5A06A40F02000A06284F8BA
:101AC00024700120BDE8F8834168C90503D4C06AC9
:101AD00010F4700F2AD0022000F0CCFD3B490968B9
:101AE000B1FBF0F62068036939490B424FEA610106
:101AF0004FEAA1121FD1C3684FEA611C13EA0C0F11
:101B000019D103690B4225D1C068104222D114209B
:101B100023E0681C0AD02DB100F066FAA0EB0800A3
:101B2000A84203D920680068800725D5206800688E
:101B30008007EED52DE003690B4202D1C168114246
:101B400006D0026923490A4206D1C068084203D17F
:101B5000542002E0292000E0FC204643009816E0D3
:101B6000681C11D02DB100F03FFAA0EB0800A8428C
:101B70000AD90098B04207D2A06A40F00400A062DF
:101B800084F8247003209DE70098401C0090B04228
:101B9000E6D321686FF012000860A06A40F400707C
:101BA000A06220688068C0F3424007280CD1207BE7
:101BB00050B9A06A20F48070A062A06AC00403D467
:101BC000A06A40F00100A06200207BE77C020020B8
:101BD000244992244992240070B5044690F82400C8
:101BE00001280DD0012084F824002046FFF782FC54
:101BF00002004FF0000005D084F82400104670BDAC
:101C0000022070BDA16A40F20123994341F4807122
:101C1000A1621F4D23681F49AB4218D10E6816F40C
:101C2000702F14D0A66A46F48016A6620E68760558
:101C300005D5A66A26F4005646F48056A662A66A22
:101C4000F6040AD5E66A26F00606E66206E0A66A0B
:101C500026F48016A6625E68E9E7E06284F8240054
:101C60006FF00200186020688368C3F34243072BBB
:101C700005D1A84208D1096811F4702F04D08168F9
:101C800041F480118160B9E7816841F4A001F9E76E
:101C9000002801400424014010B5044690F82400B7
:101CA000012807D0012084F824002046FFF7F6FB26
:101CB00010B107E0022010BDA16A21F4885141F063
:101CC0000101A162002184F8241010BD10B590F824
:101CD00021100022022905D00421816380F82020F0
:101CE000012010BD01680B6823F00E030B60016832
:101CF0000B6823F001030B6090F84030C46B0121A6
:101D000001FA03F3636080F8211080F82020104668
:101D100010BD000010B590F821100024022903D056
:101D20000421816301243DE001680A6822F00E026B
:101D30000A6001680A6822F001020A601A4A016812
:101D4000914201D1012121E0174A1432914201D17F
:101D500010211BE0144A2832914201D1891515E067
:101D6000114A3C32914201D189140FE00E4A50329F
:101D7000914202D14FF4803108E00B4A6432914223
:101D800002D14FF4801101E04FF08071064A083A09
:101D90005160012180F82110002180F82010416B52
:101DA00001B18847204610BD0800024070B50446C6
:101DB00000F01AF90546601C02D00448007804447B
:101DC00000F012F9401BA042FAD370BD700200204F
:101DD00001F038BE044910B50A68024202D008601A
:101DE000FFF7F6FF10BD0000140401402DE9F84F85
:101DF000DFF8B8910024A9F1040B23460F2709F15D
:101E0000040AABF1040EC9E00125A5402A40AA420C
:101E10007DD1674ED1F804C0ACEB0608B44532D092
:101E200014DCBCF1030F3AD009DCBCF1000F2AD05E
:101E3000BCF1010F1CD0BCF1020F31D11DE0BCF18F
:101E4000110F17D0BCF1120F2AD119E0B8F5881F75
:101E500019D006DCB8F5803F15D0B8F5801F1FD12A
:101E600011E0B8F5001F0ED0B8F5041F18D10AE034
:101E7000CB6815E0CB681B1D12E0CB6808330FE080
:101E8000CB680C330CE08B682BB1012B4FF00803AF
:101E900003D0456104E0042302E0056100E0002373
:101EA000FF2A01D8064601E000F104064FEA840546
:101EB00001D9A5F12005D6F8008007FA05FC28EA2B
:101EC0000C0803FA05F548EA0508C6F800804D68D5
:101ED000ED0062D5374DAE6946F00106AE61AD69E1
:101EE00024F0030605F001050095334D06EB050CC3
:101EF000DCF80850A607360F07FA06F825EA0805A9
:101F0000DFF8B880404503D14FF0000817E044E007
:101F1000DFF8AC80404502D14FF001080FE0DFF858
:101F2000A480404502D14FF0020808E0DFF8988015
:101F3000404502D14FF0030801E04FF0040808FAD1
:101F400006F848EA0508CCF808804D68D9F8006022
:101F5000ED024D4601D5164300E096432E604D68D4
:101F6000DAF80060AD02554601D5164300E096430D
:101F70002E604D68DBF80060AD035D4601D5164369
:101F800000E096432E604D68DEF80060ED03754674
:101F900001D5164300E096432E60641C0D682A4666
:101FA000E5407FF431AFBDE8F88F00000804014040
:101FB0000000111000100240000001400008014024
:101FC000000C01400010014000140140C26821EAE9
:101FD00002030A4043EA0241016170470AB101610C
:101FE00070470904FBE70000014880687047000063
:101FF0007002002070B5040025D094F83D00002543
:1020000020B984F83C50204600F076FA242084F869
:102010003D002068016821F001010160206801682D
:1020200041F4004101602068016821F40041016031
:1020300000F07EFC4D4A6168914201D84C4900E0B5
:102040004C49884201D2012070BD4B492368B0FB46
:10205000F1F15E6826F03F060E435E6063689342CE
:1020600006D94FF4967359434FF47A73B1FBF3F1E9
:102070002368491C1E6A26F03F06314319626168D5
:10208000914210D84900401EB0FBF1F2521CC2F33D
:102090000B02042A01D2042022E0B0FBF1F0401C24
:1020A000C0F30B001CE0A268F2B301EBC10303EB29
:1020B0000116431EB3FBF6F35B1C43F480431B0580
:1020C00049D092B301EBC10202EB0111401EB0FBFB
:1020D000F1F0401CC0F30B0040F4804040F400409D
:1020E0002168CA694CF6FF739A431043C861D4E96A
:1020F000071001432068026822F0C002114301600A
:10210000D4E9030101432068826848F2FF339A430F
:1021100011438160D4E9050108432168CA6822F0AF
:10212000FF021043C86001E00EE016E0206801687D
:1021300041F0010101602564202084F83D00256301
:1021400084F83E50002070BD01EB4106431EB3FBF6
:10215000F6F35B1CB3E70120C2E701EB4101401E2F
:10216000B0FBF1F0401CC0F30B00B7E7A086010004
:1021700080841E0000093D0040420F002DE9F84F09
:102180000025DDF82890984617468A4604460095B3
:10219000FFF72AFF064694F83D0020287AD119233C
:1021A000012286492046009601F03AFB0028F5D12D
:1021B00094F83C0001286DD0012084F83C00206890
:1021C0000168C90703D1016841F00101016020687D
:1021D000016821F400610160222084F83D00102094
:1021E00084F83E0025646762A4F82A80608D20850B
:1021F0007348E06233464A465146204601F020FAD1
:1022000000287CD1208DDFF8BC81202768B101280F
:1022100014D00228206801681ED041F4806101605A
:102220002068416980690090BBE02068416981694C
:102230000091016841F400710160B2E0206801681A
:1022400021F48061016072B6206841698169009162
:10225000016841F400710AE041F40061016072B666
:102260002068416981690091016821F48061016001
:1022700062B696E0032865D801280CD002284B46A8
:102280004FF000024146204600960BD001F0C8FAFC
:10229000A8BB0CE090E032464946204601F066FBC0
:1022A00068BB71E001F0BCFA48BB72B633E020684D
:1022B000016821F48061016072B620680069616A7A
:1022C0000870606A401C6062208D401E2085608D11
:1022D000401E60853C4846F2A8110068B0FBF1F052
:1022E000C0EBC00000EB80000090401E009007D0C3
:1022F00020684069C04340070DD50098F5E727E006
:1023000044F8305F6773A573206940F020002061B6
:1023100062B625731CE02068016841F40071016019
:1023200020680069616A0870606A401C6062218DE3
:10233000491E2185618D491E618562B62168096942
:10234000017025E032464946204601F00FFB10B1EE
:102350000120BDE8F88F20680069616A0870606A32
:10236000401C6062208D401E81B22185608D401E20
:10237000608520684269D243520712D4032903D1F1
:10238000016821F48061016020680069616A087059
:10239000606A401C6062208D401E2085608D401E5A
:1023A0006085208D00287FF465AF84F83D7084F847
:1023B0003E5084F83C50CCE70220CAE702001000EF
:1023C0000000FFFF040001007C0200202DE9F84F0F
:1023D0001F4690468A460446DDF82890FFF704FE23
:1023E000054694F83D0020287FD119230122404959
:1023F0002046009501F014FA002876D194F83C00AC
:10240000012872D0012084F83C0020680168C907C7
:1024100003D1016841F0010101602068016821F4E5
:1024200000610160212084F83D00102084F83E0006
:1024300000262664C4F824806785608D20852D4899
:10244000E0622B464A465146204601F06FF990B9AA
:10245000206841698069009036E02A464946204656
:1024600001F0BCFA50B1206C042804D12068016846
:1024700041F4007101600120BDE8F88F606A2168B5
:1024800000780861606A401C6062618D491E618548
:10249000218D491E89B2218522685369DB435B0780
:1024A0000BD451B100781061606A401C6062608D8D
:1024B000401E6085208D401E20852A4649462046C4
:1024C00001F082F90028CED1208D0028C5D154F822
:1024D0003D0B016841F400710160202004F81E09E1
:1024E000E67766770020C7E7FFE70220C4E7000031
:1024F000020010000000FFFF10B586B0002100911F
:1025000001910291039100680F4988421AD10F4C42
:10251000A06940F00800A061A069694600F00800C9
:102520000490C020009012200190032003900848DE
:10253000FFF75CFCE06940F40010E061E06900F442
:102540000010049006B010BD00540040001002407E
:10255000000C014002488168027811448160704794
:1025600070020020074810B5016841F010010160B9
:10257000032000F06DF80F2000F006F800F024F8BA
:10258000002010BD0020024070B50D4D04464FF4F0
:102590007A712878B1FBF0F00A490968B1FBF0F0D4
:1025A00000F09CFB48B9102C07D200222146501E97
:1025B00000F02EF800206C6070BD012070BD00009E
:1025C000700200207C020020094808B5816941F0B2
:1025D00001018161816901F001010091C16941F04E
:1025E0008051C161C06900F08050009008BD0000BA
:1025F00000100240002809DB00F01F020121914079
:102600004009800000F1E020C0F800117047000090
:10261000F0B40E4B1B680C46C3F30223C3F107054D
:10262000042D00D90425191D072901D2002300E03B
:10263000DB1E012606FA05F1491E214099409E4005
:10264000761E16403143F0BC02F020B90CED00E0DC
:10265000064900F0070208684FF6FF03184040EAF9
:102660000220034A10430860704700000CED00E0B0
:102670000000FA0510B501460020234C012922D0A4
:10268000022939D010291DD161682268D20119D5DB
:102690001E48C1F38342C903805C0AD561681B4AA6
:1026A000C1F34041921E515C194AB2FBF1F148431B
:1026B00001E0184948436168490203D440000321FE
:1026C000B0FBF1F010BD226AC2F30121012903D150
:1026D000920701D5C80310BD022905D1626A92078D
:1026E00002D549F6404010BD0329FCD12168890379
:1026F000F9D54FF2244010BD00F02AF96168C1F30A
:102700008131491C4900DBE7001002409C6600084B
:1027100000127A0000093D002DE9F84305460078D3
:10272000354CC00754D0E0690026C00008D4E069E9
:1027300040F08050E061E069012600F08050009098
:102740002E480168C90512D40168804641F48071A1
:102750000160FFF749FC074605E000BFFFF744FCB6
:10276000C01B642823D8D8F80000C005F6D5206A1D
:1027700010F4407021D0A98801F4407181421CD02E
:10278000206A1F49012220F440700A6000220A607A
:102790002062C00711D0FFF727FC074641F28838B6
:1027A00008E000BFFFF720FCC11B414502D9032010
:1027B000BDE8F883206A8007F4D5206A696820F4B0
:1027C0004070084320621EB1E06920F08050E06153
:1027D0002878800705D56068A96820F44040084340
:1027E00060602878C00605D56068E96820F480003C
:1027F000084360600020DBE70010024000700040EA
:10280000400442422DE9F0470F46050061D0434E97
:10281000306800F00700B84209D2306820F00700A5
:1028200038433060306800F00700B84251D1286862
:102830003B4C810712D5400703D5606840F4E06047
:1028400060602878000703D5606840F460506060DD
:102850006068A96820F0F000084360602878C0072D
:1028600028D06868012810D02168022810D0890774
:1028700000292EDA616821F0030101436160FFF74E
:10288000B3FB804641F288390DE021688903EFE708
:102890008901EDE7FFF7A8FBA0EB0801494502D944
:1028A0000320BDE8F0876068696800F00C00B0EBB9
:1028B000810FEFD1306800F00700B8420BD93068C3
:1028C00020F0070038433060306800F00700B8425D
:1028D00001D00120E5E72878400705D56068E96860
:1028E00020F4E060084360602878000706D560683F
:1028F000296920F4605040EAC100606000F038F8B7
:102900006168084AC1F30311515CC8400649086078
:1029100006480068FFF738FE0020C2E700200240AA
:1029200000100240AC6600087C0200207402002007
:102930000448054900684968044AC1F30221515C12
:10294000C84070477C02002000100240BC660008AE
:102950000448054900684968044AC1F3C221515C32
:10296000C84070477C02002000100240BC6600088E
:102970000E4A51680E4801F00C03042B11D0082BAD
:102980000FD10C48C1F38343C903C05C0AD5516819
:10299000084AC1F34041921E515C054A5043B0FBC6
:1029A000F1F07047044948437047000000100240AE
:1029B00000127A008A66000800093D002DE9F84FF0
:1029C000040070D02078C04DC00749D06868C0F3BB
:1029D0008100012807D06868C0F38100022809D16E
:1029E0006868C00306D52868800339D56068002868
:1029F000E7D035E06068B0F5803F0BD010B1B0F59E
:102A0000A02F11D0286820F480302860286820F496
:102A1000802002E0286840F480302860606890B12F
:102A2000FFF7E2FA06460AE0286840F480202860B2
:102A3000F0E700BFFFF7D8FA801B642873D8286836
:102A40008003F7D50CE0FFF7CFFA064605E000BF9C
:102A5000FFF7CAFA801B6428F0D828688003F7D4EF
:102A600020789A4E80074FF001094FF0000839D5C1
:102A7000686810F00C0F07D06868C0F38100022866
:102A800009D16868C00306D42868800714D5206976
:102A9000012808D110E02069B0B1C6F80090FFF716
:102AA000A3FA074605E00AE1FFF79EFAC01B0228D9
:102AB000C4D828688007F7D52868616920F0F80035
:102AC00040EAC10028600DE0C6F80080FFF78CFAEC
:102AD000074604E0FFF788FAC01B022823D82868BD
:102AE0008007F7D4207800072CD57948A169D9B19F
:102AF000C0F80090FFF778FA074604E0FFF774FA91
:102B0000C01B02280FD8686A8007F7D571484FF4B8
:102B1000FA510068B0FBF1F0009000BF0098411E30
:102B20000091FAD20EE080E0C0F80080FFF75CFA76
:102B3000074604E0FFF758FAC01B022875D8686AF8
:102B40008007F7D42078400760D5E8690027C000E7
:102B500008D4E86940F08050E861E869012700F096
:102B6000805000905C480168C90513D40168834611
:102B700041F480710160FFF737FA824606E000BF3A
:102B8000FFF732FAA0EB0A0064284ED8DBF8000009
:102B9000C005F5D5E06801280AD008B1052813D092
:102BA000286A20F001002862286A20F0040002E070
:102BB000286A40F001002862E06841F2883B98B141
:102BC000FFF712FA82460BE0286A40F00400286200
:102BD000EEE700BFFFF708FAA0EB0A0159455AD803
:102BE000286A8007F6D50CE0FFF7FEF9824605E07B
:102BF000FFF7FAF9A0EB0A0159454CD8286A80077B
:102C0000F6D41FB1E86920F08050E861E06988B32C
:102C10006968C1F38101022944D00228C6F86080A6
:102C200004D0FFF7E1F9044638E034E0FFF7DCF9BF
:102C3000074604E0FFF7D8F9C01B02282BD8286804
:102C40008001F7D4206AB0F5803F05D16868A1689B
:102C500020F4003008436860D4E90801084369683B
:102C600021F4741108436860C6F86090FFF7BCF95E
:102C7000044606E025E000BFFFF7B6F9001B022876
:102C800009D828688001F7D51BE000BFFFF7ACF931
:102C9000001B022802D90320BDE8F88F28688001B4
:102CA000F4D40EE00128F7D06868226A00F480317D
:102CB000914204D1616A00F47010884201D0012071
:102CC000EAE70020E8E7000000100240000042426E
:102CD000800442427C0200200070004010B5401E7B
:102CE000B0F1807F01D3012010BD4FF0E02460617E
:102CF0000F21601701F0CAFD0020A06107202061AC
:102D0000002010BD70B590F83C20012A26D0012487
:102D100080F83C40022280F83D2003685A689D6894
:102D200022F070060A6832435A600D4B02689A42DC
:102D300008D0B2F1804F05D00A4B9A4202D00A4B1C
:102D40009A4204D1496825F080031943916080F8C4
:102D50003D40002180F83C10084670BD022070BD47
:102D6000002C0140000400400008004010B50400A1
:102D700003D094F83D0010B107E0012010BD002001
:102D800084F83C00204600F01FF8022084F83D0043
:102D9000211D206801F0C2FA012084F8460084F861
:102DA0003E0084F83F0084F8400084F8410084F835
:102DB000420084F8430084F8440084F8450084F815
:102DC0003D00002010BD000008B501680B48B1F1BE
:102DD000804F0BD00A4A914207D1C16941F00201EC
:102DE000C161C06900F00200009008BDC16941F0F6
:102DF0000101C161C06900F00100F5E70010024067
:102E00000004004070B5044690F83C0000250128FD
:102E100017D0012684F83C60022084F83D00206829
:102E2000826822F0770222F47F428260086850288C
:102E300038D00DDC20284FD005DC90B3102811D1FC
:102E40004AE0022070BD302846D040280AD13BE03D
:102E500060282FD070280DD0B0F5805F03D0B0F57A
:102E6000005F12D0012584F83D60002084F83C000A
:102E7000284670BDCB68D1E90121206801F097FA9E
:102E80002068816841F0770109E0CB68D1E9012130
:102E9000206801F08CFA2068816841F480418160EB
:102EA000E1E719E0CA684968206801F035FB502164
:102EB000206806E0CA684968206801F03EFB60218E
:102EC000206801F07EFACEE7CA684968206801F000
:102ED00023FB40212068F4E7226801461046F0E712
:102EE00000B585B000210091019102910391006825
:102EF0000B49884211D10B48816941F0040181617D
:102F00008069694600F004000490C020009002200F
:102F1000019003900448FEF769FF05B000BD000072
:102F200000040040001002400008014070B5044653
:102F300090F83C0000260D4601280FD0012084F8AF
:102F40003C006AB1042A1DD0082A2FD00C2A3FD099
:102F50000126002084F83C00304670BD022070BD80
:102F6000206801F037FA2068816941F00801816129
:102F70002068816921F004018161206881692A69E2
:102F8000114311E0206801F04DFA2068816941F495
:102F9000006181612068816921F48061816120681C
:102FA00081692A6941EA02218161D2E7206801F042
:102FB00065FA2068C16941F00801C1612068C169F2
:102FC00021F00401C1612068C1692A69114311E03F
:102FD000206801F07FFA2068C16941F40061C16195
:102FE0002068C16921F48061C1612068C1692A69D2
:102FF00041EA0221C161ACE710B5040003D094F8A6
:103000003D0010B107E0012010BD002084F83C0015
:10301000204600F01EF8022084F83D00211D2068A3
:1030200001F07CF9012084F8460084F83E0084F821
:103030003F0084F8400084F8410084F8420084F89E
:10304000430084F8440084F8450084F83D000020E3
:1030500010BD704710B50446022249B104290ED0B4
:10306000082913D094F84100012816D0012010BD82
:1030700094F83E000128F9D184F83E200FE094F83E
:103080003F000128F2D184F83F2008E094F8400086
:103090000128EBD184F8402001E084F8412001228E
:1030A000206801F077F90F492068884203D1426C0B
:1030B00042F4004242642068884208D0B0F1804F58
:1030C00005D00949884202D00849884204D1816864
:1030D00001F00701062903D0016841F001010160F8
:1030E000002010BD002C01400004004000080040FA
:1030F00070477047F8B5016804460868CA684B69AC
:1031000010F00F0F4FF0000559D003F0010602F444
:103110009077374365D0C10705D0D10503D5616CE1
:1031200041F001016164410705D5D90703D0616C05
:1031300041F002016164810705D5D90703D0616CB4
:1031400041F004016164010707D502F02001314319
:1031500003D0616C41F008016164616C00293AD0D0
:10316000800604D5900602D5204601F027FA206893
:103170004069616CC0F38010090700D460B3204639
:1031800001F0F5F920684069400621D52068143027
:1031900050E8001F21F0400140E80012002AF5D15C
:1031A000E06BA8B16D494163E06BFEF7B3FD002809
:1031B00011D0E06B416B01B0BDE8F04008478306D9
:1031C0000FD593060DD52046BDE8F84001F0F6B9BD
:1031D0002046FFF78EFFF8BD2046FFF78AFF6564A3
:1031E000F8BD266B2023012E7CD1C6067AD5D606E3
:1031F00078D508684868009048694FF00206400694
:1032000040D5E16B086840680004000CE8D0A28D4E
:103210008242E5D9E085886920282DD020680C30CD
:1032200050E8001F21F4807140E80012002AF5D117
:103230002068143050E8001F21F0010140E800121E
:10324000002AF5D12068143050E8001F21F0400119
:1032500040E80012002AF5D184F842302563206846
:103260000C3050E8001F21F0100140E80012002A45
:10327000F5D1E06BFEF72AFD6663A08DE18D401A63
:1032800081B22AE0A08DE18D401A81B2E08D002844
:10329000A6D00029A4D022680C3252E8000F20F4F6
:1032A000907042E80007002FF5D12068143050E8F4
:1032B000002F22F0010240E80027002FF5D184F80A
:1032C0004230256320680C3050E8002F22F01002B5
:1032D00040E80023002BF5D166632046FFF708FF86
:1032E000F8BDFFE705062BD5150629D594F8410052
:1032F0002128F5D1A068B0F5805F01D12069B0B177
:10330000206A411C2162216800784860E08C401EE0
:103310000004000CE084E3D12068C16821F0800142
:10332000C1602068C16841F04001C160D8E7206AEF
:103330000088C0F308004860206A801C2062E5E72E
:103340004006CDD55006CBD5CA68204622F04002B3
:10335000CA6084F8413000F059F9C1E75F450008C0
:1033600070B5040004D094F84100002510B106E0C7
:10337000012070BD84F84050204600F023F824203E
:1033800084F841002068C16821F40051C1602046E2
:1033900001F076F92068016921F49041016120680B
:1033A000416921F02A0141612068C16841F400515E
:1033B000C1606564202084F8410084F842006563A0
:1033C000002070BD30B585B00024009401940294B3
:1033D00003940068184988422BD11848C16941F408
:1033E0000031C161C16901F400310491816941F08A
:1033F000040181618069124D00F0040004900420F2
:103400000090022001900320039069462846FEF7B1
:10341000EDFC0820CDE90004694628460294FEF739
:10342000E5FC002211462620FFF7F2F82620FFF7E0
:10343000E1F805B030BD000000440040001002403B
:103440000008014090F84230202B01D00220704744
:1034500021B11AB10023036301F06EB90120704756
:10346000404910B588427BD13F480078612824D07C
:10347000622825D0632826D0642827D0652828D044
:10348000212829D040282AD023282BD066282CD0C8
:1034900067282DD0682830D0692833D06A2836D0E4
:1034A0006B2839D06C283CD06D283CD06E283FD09A
:1034B0006F2842D0702845D04BE000F0C3FA48E0B6
:1034C00000F0B8FA45E0FEF75BF842E0FEF750F88E
:1034D0003FE0FEF7BBF83CE0FEF7D2F839E0FEF73C
:1034E000DBF836E0FEF7EAF833E0FEF789F830E083
:1034F000012000F0CBFE012128E0022000F0C6FEF2
:10350000022123E0032000F0C1FE03211EE0002081
:1035100000F0BCFE002119E0012000F0A9FE04210A
:1035200014E0022000E0032000F0A2FE05210DE0DF
:10353000012000F0A5FE062108E0052000F0A0FE15
:10354000072103E0002000F09BFE08216620FEF723
:103550003DF8BDE81040012203490248FFF772BF61
:1035600010BD0000C40300206C0200202DE9F843C8
:10357000044690F84100984616460D46202802D091
:103580000220BDE8F88385B17EB10020606421206F
:1035900084F84100FEF728FDA6848146E684A068F1
:1035A0002027B0F5805F02D003E00120E9E7206921
:1035B00010B12E4600250EE000260CE080212046AA
:1035C00001F0D5F8A8B9C6B116F8010B216848601A
:1035D000E08C401EE084E08C4B464FF00002CDF8BA
:1035E00000800028EAD14FF04001204601F0BFF8EA
:1035F00040B184F841700320C3E735F8020BC0F3F3
:103600000800E3E784F841700020BAE77047FEE75E
:1036100001684A69D24352050FD46FF480624A614F
:10362000002140F8301F202242738173026942F06A
:1036300004020261017301207047002070470000FE
:103640002DE9F84F0446C06A1E4693460D46216890
:103650000A6842F480620A60082807D0012805D071
:1036600010F5803F02D0206B112804D1206801683A
:1036700041F4807101604FF001195B460022494618
:103680002046009600F0CCF84FF4007840B1206856
:103690000068C00501D5C4F840800320BDE8F88F5C
:1036A0002069DFF884A0B0F5804F0FD00620216894
:1036B00000EAD51747F0F000086133465A460AF190
:1036C0000601204600F0F4F858BB03E0E8B240F0F1
:1036D00001001CE02168E8B2086133465A465146B1
:1036E000204600F0E5F8E0B9206841698169009161
:1036F000016841F4807101605B4600224946204622
:10370000009600F08DF80028C1D147F0F100216843
:10371000086133465A465146204600F0C9F8002851
:10372000BCD00120BAE7000002000100F8B5044651
:10373000C06A1E460D461746082807D0012805D046
:1037400010F5803F02D0206B122804D12068016858
:1037500041F480710160134600224FF001112046B0
:10376000009600F05DF840B120680068C00502D501
:103770004FF4007020640320F8BD2069B0F5804F3D
:103780000ED00620216800EAD51040F0F000086154
:1037900033463A460B49204600F08AF878B902E0F1
:1037A00005F0FE0000E0E8B22168086105493346F3
:1037B0003A46891F204600F07BF80028DCD0012023
:1037C000F8BD00000800010070B516460D4604461D
:1037D0001EE02046FFF71CFF08B1012070BD681CE9
:1037E00016D0FEF701FC801BA84200D885B92068DE
:1037F0004069C04340070BD5002044F8300F20211A
:103800006173A073216941F0200121612073E4E715
:1038100020684069C0434007DBD4002070BD000031
:103820002DE9F047984617460D460446C1F3074672
:10383000DDF820902AE000BFB8F1FF3F26D0FEF768
:10384000D3FBA0EB0901414502D8B8F1000F1DD10F
:103850002068012E16D0806925EA00000004000CC3
:1038600012D00020B84211D1002044F8300F20219E
:103870006173A073216941F020012161207301204F
:10388000BDE8F0874069E7E70120EBE72068012EFB
:103890000AD0806925EA00000004000C06D0002050
:1038A000B842C9D00020EBE74069F3E70120F7E711
:1038B0002DE9F047984616460D4604464FF000099C
:1038C0004FF0200AC1F3074723E020684069C04356
:1038D000400515D42068016841F400710160216839
:1038E0006FF480604861C4F8309084F83DA084F89B
:1038F0003E90216C41F00401216484F83C9021E069
:10390000701C06D0FEF770FBA0EB0800B04203D895
:1039100016B1012F1FD021E02068012F15D080693A
:1039200025EA00000004000C18D000BF44F8309FC6
:1039300084F80DA084F80E90216941F020012161E6
:1039400084F80C900120BDE8F087406925EA00006A
:103950000004000CEAD12068406901E02068806919
:1039600025EA00000004000CAFD1ECE72DE9F0419E
:10397000002590460E460446202728E04069C043B3
:10398000C0060CD454F8301B6FF01000486144F8A6
:1039900010596777A577206A2062257714E0FEF733
:1039A00023FBA0EB0800B04200D886B9206840692C
:1039B000C04340060BD544F8305F6773A573206998
:1039C00040F02000206125730120BDE8F0812068CF
:1039D0004169C9434906D1D40020F6E770B51646BF
:1039E0000D4604461EE02046FFF712FE08B10120F6
:1039F00070BD681C16D0FEF7F7FA801BA84200D8ED
:103A000085B920684069C04300060BD5002044F802
:103A1000300F20216173A073216941F020012161E1
:103A20002073E4E720684069C0430006DBD400202F
:103A300070BD000000220E210148FEF7CFBA000041
:103A40000010014001220E210148FEF7C7BA000014
:103A50000010014070B5012833D0022833D01B4C30
:103A6000FEF7C2FA01F06AFE194A1A4B01F07AFE1B
:103A700001F0E4FB0546204602F068F806460C46D5
:103A8000284602F063F8144A144B01F06BFE3246EC
:103A9000234601F0B5FC01F06BFB4FF0FF3202F062
:103AA000A1F900220E4B01F0FBFB01F0C7FB0D4911
:103AB00002F098F802F076F80B4980B20968486382
:103AC00070BD0A4CCCE74FF08044C9E73333333F35
:103AD000FCA9F1D24D62503F1F85EB51B81E194031
:103AE0000000E03F0000FA437C0300200000C040DB
:103AF0000749096838B1012804D0022805D040F2EE
:103B0000F31000E0A62048637047FA20FBE70000AE
:103B10007C03002010B520B1FEF766FA0449086066
:103B200010BD0449002088700870487010BD000066
:103B3000680200200000002000210148FFF78ABA37
:103B40007C03002010B50848FEF746F8052106481A
:103B5000FDF7A4FF0448FDF7CBFE04460248FEF73C
:103B60009BF8204610BD0000800200200148FDF7B0
:103B7000D5BD0000800200203EB50024114800940D
:103B8000019402940E498460016004730475012558
:103B900005614FF460214460C161FDF7ADFE08B1DD
:103BA000FDF72BFD0420CDE9000569460294054888
:103BB000FDF720FE002801D0FDF71FFD3EBD0000EF
:103BC00000240140800200203EB5002411480094EA
:103BD000019402940E498460016004730475012508
:103BE00005614FF460214460C161FDF785FE08B1B5
:103BF000FDF703FD0520CDE900056946029405485F
:103C0000FDF7F8FD002801D0FDF7F7FC3EBD0000F0
:103C100000280140B002002030B585B000242448BF
:103C20000094019402940394816941F02001816120
:103C3000816901F020010491816941F010018161E5
:103C4000816901F010010491816941F004018161F1
:103C5000816901F004010491816941F008018161E9
:103C60008069144D00F00800049000229E2128462F
:103C7000FEF7B4F99E2000900120CDE90104022452
:103C8000694628460394FEF7B1F8202000900A48C0
:103C9000CDE9010469462846FEF7A8F80022012173
:103CA0001720FEF7B5FC1720FEF7A4FC05B030BDC9
:103CB0000010024000100140000011100D4810B526
:103CC0000B4901600C49416000214FF48042816042
:103CD000C0E9031241618161C1610162FEF78AF9A5
:103CE000002803D0BDE81040FDF787BC10BD0000E0
:103CF00000540040E0020020A086010010B586B00C
:103D000000241648009401940294039404944FF004
:103D10008041059401604721C0E901144FF6FF710D
:103D2000C0E903148461FFF721F808B1FDF765FCD1
:103D30004FF48050009069460848FFF763F808B1D7
:103D4000FDF75BFC049404A904480594FEF7DAFF30
:103D5000002801D0FDF751FC06B010BD340300204F
:103D600010B58EB000240794089409940A940B941B
:103D70001C2168460C94FCF77DFB22482049016019
:103D80004821C0E9011440F2F311C0E90314846131
:103D9000FEF7ECFF08B1FDF730FC4FF480500790C0
:103DA00007A91848FFF72EF808B1FDF726FC1548BB
:103DB000FFF722F908B1FDF720FC0B940BA911487D
:103DC0000C94FEF79FFF08B1FDF717FC6020CDE9CA
:103DD00000040294002269460A480494FFF7A6F8FA
:103DE00008B1FDF70AFC042269460648FFF79EF871
:103DF00008B1FDF702FC0348FFF772F80EB010BDE2
:103E0000000400407C0300200E4810B50C490160FE
:103E10004FF4E1314160002181600C22C160C0E9B2
:103E200004128161C161FFF79BFA08B1FDF7E5FB60
:103E3000BDE81040012204490248FFF703BB00001F
:103E400000440040C40300206C0200200148FDF73C
:103E500065BC0000B0020020FEE7FEE770B500245C
:103E600004F1B000C0B2002100F0A2F90021084620
:103E700000F09EF90021102000F09AF900250121A0
:103E8000002000F095F96D1CEDB2802DF7D3641C75
:103E9000E4B2082CE4D370BD10B500218D2000F0F1
:103EA00087F90021142000F083F90021BDE81040BB
:103EB000AF2000F07DB910B54FF44870FDF776FFE4
:103EC0000021AE2000F074F90021084600F070F9DE
:103ED0000021102000F06CF90021402000F068F96A
:103EE0000021B02000F064F90021812000F060F989
:103EF0000021FF2000F05CF90021A12000F058F91A
:103F00000021A62000F054F90021A82000F050F96B
:103F100000213F2000F04CF90021C82000F048F9B2
:103F20000021D32000F044F90021084600F040F9B8
:103F30000021D52000F03CF90021802000F038F964
:103F40000021D82000F034F90021052000F030F9DC
:103F50000021D92000F02CF90021F12000F028F9EF
:103F60000021DA2000F024F90021122000F020F9CD
:103F70000021DB2000F01CF90021302000F018F9AE
:103F800000218D2000F014F90021142000F010F918
:103F90000021BDE81040AF2000F00AB910B504467A
:103FA000B031C8B2002100F003F9102040EA14102B
:103FB000002100F0FDF804F00F00BDE810400021E2
:103FC00000F0F6B82DE9F041203A00240D46804675
:103FD000D6B27F2803D900208D1C8046EDB2102B6D
:103FE000294610D0FFF7DAFF164906EB460001EB31
:103FF00040050121285D00F0DBF8641CE4B2062CCA
:10400000F7D3BDE8F081FFF7C9FF0F4F04EB0610AF
:104010000121385C00F0CCF8641CE4B2082CF5D324
:104020006D1CE9B24046FFF7B9FF002404EB06100F
:1040300038440121007A00F0BBF8641CE4B2082C7B
:10404000F4D3DEE7705E0008986000082DE9F047C1
:104050000026884681463446DFF840A002E0022C64
:1040600000D1102604F0010101EB0800C1B209EBF8
:104070000600C0B2FFF792FF00250AEB04170121EA
:10408000785D00F095F86D1CEDB2102DF7D3641C2F
:10409000E4B2042CE3D3BDE8F0870000C5000020A3
:1040A0002DE9F047DFF834800F46814600243819A7
:1040B000C1B24846FFF772FF002508EB0416012144
:1040C000705D00F075F86D1CEDB2102DF7D3641C17
:1040D000E4B2022CEBD3BDE8F087000025010020FC
:1040E0002DE9F041984617460E46044600250DE09E
:1040F000434631462046FFF765FF0834E4B2782C8A
:1041000002D90024B61CF6B26D1CEDB27A5D002A0D
:10411000EED1BDE8F08100002DE9F0470026884689
:1041200081463446DFF840A002E0022C00D1102680
:1041300004F0010101EB0800C1B209EB0600C0B2B6
:10414000FFF72CFF00250AEB04170121785D00F032
:104150002FF86D1CEDB2102DF7D3641CE4B2042CC3
:10416000E3D3BDE8F0870000850000202DE9F0478B
:10417000DFF838800F468146002400BF04F00100BC
:104180003844C1B24846FFF709FF002508EB041682
:104190000121705D00F00CF86D1CEDB2102DF7D30D
:1041A000641CE4B2022CE9D3BDE8F08705010020CD
:1041B00009B100F043BB00F02FBB70477FB5054647
:1041C00000200190029023A00C4600684FF47A76FC
:1041D0000390022303AA882100961F48FEF7F6F8F1
:1041E0001420FDF7E3FD062301AA88211A48009652
:1041F000FDF7C4FF194EB5B19DF805009DF80410F8
:1042000000EB012001F09AFA0022154B01F0AAFA06
:104210000022334601F0F4F80022124B01F040F87E
:1042200001F00CF8286094B19DF808009DF8071083
:1042300000EB012001F082FA00220B4B01F092FA10
:104240000022334601F0DCF800F0F8FF206004B0F3
:10425000002070BD24000000E0020020E0FFEF40DD
:1042600000E06540008046C00000594070470000F3
:1042700002494870002008707047000000000020CC
:104280000149887070470000000000200249087052
:10429000002048707047000000000020FEF75AB967
:1042A00030B593B028216846FCF7E4F814210AA839
:1042B000FCF7E0F8002501200F95109511950104F9
:1042C00012958DE8230004904FF4E010CDE908101A
:1042D000022407946846FEF771FB08B172B6FEE748
:1042E0000AA90F2081E831004FF48060CDE90D0567
:1042F00002210AA8FEF786FA08B172B6FEE74FF46B
:10430000004011900F940FA8FEF706FA002801D084
:1043100072B6FEE713B030BD70470000F0B502681A
:10432000194B1A4C1A4D4FF08047984205D0B842AD
:1043300003D0A04201D0A84203D122F070064A68FF
:104340003243984205D0B84203D0A04201D0A842DF
:1043500003D122F44074CA6822434C6922F08002DF
:10436000224302608A68C2620A688262984201D16E
:1043700009690163012141610169C90703D001692C
:1043800021F001010161F0BD002C0140000400405A
:104390000008004010B501F01F030121046A994094
:1043A0008C430462016A9A401143016210BD10B54A
:1043B000846842EA032224F47F440A432243826051
:1043C00010BD826822F070020A4342F0070181604A
:1043D0007047000030B5036A026A22F001020262EF
:1043E0004268846924F073050C682C4323F00205AD
:1043F0008B682B430A4DA8420BD123F00805CB68EC
:1044000022F440722B434D6923F0040315438A695B
:104410002A434260846149684163036230BD000001
:10442000002C014030B5026A036A23F010030362D6
:10443000436884690D6824F4E64444EA05248D68E1
:1044400022F0200242EA05120B4DA8420ED1CD689F
:1044500022F0800242EA05124D6923F4406343EAE8
:1044600085038D6922F0400243EA8503436084613D
:1044700049688163026230BD002C014030B5036A97
:10448000026A22F4807202624268C46923F40073F3
:1044900024F073050C682C438D6843EA05230C4D0A
:1044A000A8420ED1CD6823F4006343EA05234D6989
:1044B00022F4405242EA05128D6923F4806342EAF5
:1044C00005124260C4614968C163036230BD0000E7
:1044D000002C014030B5046A026A22F48052026264
:1044E0004268C3690D6823F4E64343EA05238D68F7
:1044F00024F4005444EA0534064DA84204D14D6921
:1045000022F4804242EA85124260C3614968016434
:10451000046230BD002C014010B5036A046A24F027
:1045200001040462846924F0F00444EA021423F0D4
:104530000A020A438461026210BD10B5036A046A6C
:1045400024F010040462846923F0A00324F470446E
:1045500044EA023243EA01118261016210BD10B5E2
:10456000406A0021C185C184FEF7C3FD10BD01680A
:104570000C3151E8002F22F4907241E80023002B07
:10458000F5D10168143151E8002F22F0010241E811
:104590000023002BF5D1016B012909D101680C31F1
:1045A00051E8002F22F0100241E80023002BF5D142
:1045B000202180F8421000210163704708B590F86F
:1045C0004210222901D0022008BD82684FF4805396
:1045D0009A4201D1016921B1816A9A421BD04AB144
:1045E0000AE00268816A5268C2F308020A80816A9E
:1045F000891C08E0026972B10268526802F07F0209
:104600000A70816A491C8162C18D491E0904090C26
:10461000C18503D01BE002685268F1E70168CA68EF
:1046200022F02002CA600168CA6822F48072CA605F
:1046300001684A6922F001024A61202180F8421093
:1046400000214163026B012A03D0FEF709FF00201D
:1046500008BD016301680C3151E8002F22F01002FF
:1046600041E80023002BF5D101680A68D20602D583
:104670000A6849680091818DFEF73AFDE7E700007E
:1046800070B5044600680169E26821F440511143A5
:1046900001612169A0680843616908432168CA680B
:1046A00041F20C639A430243CA6020684169A269DF
:1046B00021F44071114341611E492068884202D1B2
:1046C000FEF746F901E0FEF733F900EBC00101EB1C
:1046D0000012606864218000B2FBF0F3B3FBF1F3D9
:1046E0006FF018067343B2FBF0F5B2FBF0F605EB82
:1046F0008305322303EB0515B5FBF1F5B6FBF1F6A7
:1047000005F0F00505EB0615B2FBF0F6B2FBF0F094
:10471000B0FBF1F06FF01802504306EB800003EBA2
:104720000010B0FBF1F0216800F00F002844886011
:1047300070BD00000038014081628285C285002181
:104740004164222180F84210016921B10168CA68E0
:1047500042F48072CA6001684A6942F001024A610B
:104760000068C16841F02001C160002070472DE958
:10477000F843984617460D460446089E24E0701CF0
:1047800022D0FDF731FCA0EB0800B0421AD8CEB120
:104790002068C168490717D5802D15D0402D13D04A
:1047A0000168C94309070FD40168002540680090DB
:1047B0002046FFF7DCFE0820606484F840500120AA
:1047C000BDE8F8830320FBE72068006835EA0000B5
:1047D00004D00020B842D2D00020F1E70120F9E750
:1047E0000148FEF787BC0000C4030020FEE700007C
:1047F00010B50848FDF7F0F905210648FDF74EF918
:104800000448FDF775F804460248FDF745FA2046CE
:1048100010BD0000B00200201CB5002101918DF8F0
:1048200005004FF47A700090022301AA7821024813
:10483000FDF7CCFD1CBD0000E00200201CB507A167
:104840000223096801918DF805004FF47A700090F9
:1048500001AA78210248FDF7B9FD1CBD4000000007
:10486000E0020020490050EAC12018BF04204A0D90
:1048700018BF40F0010040F2FF72B2EB515F08BF79
:1048800040F00200012808BF052070470907090E03
:10489000002804DB00F1E02080F80014704700F0ED
:1048A0000F0000F1E02080F8141D70472DE9F74F4C
:1048B000144694B00021C4E902111599079121F022
:1048C0000045C9498D4206DC1599C4E9000117B0BD
:1048D0000020BDE8F08FC549DFF814A3A9423CDDF4
:1048E0000799C44E0029C44FC44A1599534619DD8F
:1048F00001F042F8554506D0C14AC24B01F03CF8E0
:10490000C4E900010AE04FF0D352BE4B01F034F885
:1049100032463B4601F030F8C4E9000117B00120EF
:10492000BDE8F08F00F0BCFC554506D0B44AB54B4D
:1049300000F0B6FCC4E900010AE04FF0D352B14BDD
:1049400000F0AEFC32463B4600F0AAFCC4E9000190
:1049500017B04FF0FF30BDE8F08FAB49A942159971
:1049600078DB21F0004183468846A84AA84B00F036
:10497000F9FE0022A74B00F093FC00F099FE09908D
:1049800000F0C5FE06460F469C4A534600F0EAFE7C
:1049900043465A4600F0E4FF80468A46984A994BBF
:1049A0003046394600F0DEFE2A0D01250B924246C4
:1049B000534600F0D5FF032DC4E9000139D00B9810
:1049C000C1F30A51401A05EB45111139814230DA21
:1049D0009148C346784400EB0510CDF80CA00C902C
:1049E000D0E900233046394600F0BCFE02460B46B3
:1049F000049106905846039900F0BEFF80468A460F
:104A000002460B465846039900F0B6FF049B069AEF
:104A100000F0B2FF83460C9803913946D0E9022397
:104A2000304600F09FFE5A46039B00F0A5FF6D1C28
:104A3000BDE707980028A2BF099817B0BDE8F08F1E
:104A4000616881F000416160099817B04042BDE89B
:104A5000F08FFFE784461598C1F31301C0F30A50A5
:104A6000A0F2F5304FEA601800F01F06C6F12000F2
:104A7000139000200690079041F4801E05206D469B
:104A800076B1664A08EB00017A4452F8213002EB15
:104A90008101B3404A68139922FA01F1194305E0F4
:104AA0005F4908EB0002794451F82210A1FB0E2760
:104AB000A1FB0C131A449A4234BF0123002303EBD9
:104AC000070A05EB8003D3E901B70F448F4234BFD7
:104AD0000121002193448B4411B1934502D903E095
:104AE000934501D2012100E00021C3E901B75144FF
:104AF00045F82010011EA0F10100C1DC0298059FBD
:104B000000F10050800F12900298DDE903568000FA
:104B100000F0FDFD834628460D9100F00FFE6FF07A
:104B20001D0201F05FF9CDE90E01304600F006FEEE
:104B30006FF03D0201F056F980468A46384600F093
:104B4000FDFD6FF05D0201F04DF907464246534608
:104B5000119100F0A5FBDDE90E2300F0A1FB5A4600
:104B60000D9B00F09DFB00250E465A4628460D9BE6
:104B700000F002FFDDE90E2300F0FEFE4246534640
:104B800000F0FAFE3A46119B00F0EAFEDFF898A02A
:104B9000244A534600F0E6FD07468846234A244B44
:104BA0003146284600F0DEFD3A46434600F078FBE9
:104BB000074688464FF0A84253463146284600F043
:104BC000D1FD3A46434600F06BFB159A12F0004FB8
:104BD00004D0129A81F0004152421292C4E90001BD
:104BE000129817B0BDE8F08FFB21E93F7CD9024055
:104BF000FB21F93F7370032E8A19A33B0000405438
:104C00003163621A61B4D03DFB21394183C8C96D5B
:104C1000305FE43F0000E03F201D00009C1C0000CE
:104C20007E1C0000182D4454FB21F93D3326A611AB
:104C3000460B113C2DE9FF4D21F0004807460C467C
:104C4000B8F1795F08DA00F033FD002801BF0020D9
:104C5000324904B0BDE8F08D3A4623461046194665
:104C600000F080FD054602462D480E460B46062103
:104C7000784400F05DF82A46334600F073FDDDE924
:104C8000022382468B463846214600F06BFD0446DF
:104C90000F4652465B462846314600F063FD2246E9
:104CA0003B4600F069FE07468A464FF0FF32284631
:104CB000314601F097F81B4A90450ADA3A465346C6
:104CC00000F05AFE04B00022BDE8F04D134B00F096
:104CD00047BE154A4245A8BFA8F500154FF000048D
:104CE000B8BF124D22462B4600F046FE06468846C7
:104CF00022462B460020094900F03EFE04460D46A0
:104D00003A4653463046414600F036FE04B022464D
:104D10002B46BDE8F04D00F023BE00000000F03F40
:104D2000541A00003333D33F0000E93F0000D23F64
:104D30002DE9F0414F1E00EBC7010446D1E9000107
:104D400015461E4637F006020DD02A46334600F0BF
:104D500009FD7F1E04EBC703D3E9002300F0A0FA8E
:104D600037F00602F1D1022F25D0042F13D0062FE1
:104D700018BFBDE8F0812A46334600F0F3FCD4E9C1
:104D80000A2300F08DFA2A46334600F0EBFCD4E902
:104D9000082300F085FA2A46334600F0E3FCD4E904
:104DA000062300F07DFA2A46334600F0DBFCD4E906
:104DB000042300F075FA2A46334600F0D3FCD4E908
:104DC000022300F06DFA2A46334600F0CBFCD4E90A
:104DD0000023BDE8F04100F063BA00002DE9FF4D6B
:104DE000054621F0004084B00C46B0F1795F0BDA43
:104DF0002846FFF737FD042808BF00F06FF8284663
:104E000008B02146BDE8F08D2A460B46104600F05A
:104E1000A9FC06460F462A46234600F0A3FC80461E
:104E200026488A4632463B4605217844FFF780FFF4
:104E300083461098029160B3214A224B4046514666
:104E400000F090FCCDE900015A4640465146029BD5
:104E500000F088FC82468846DDE906014FF0FF320B
:104E600000F0C0FF5246434600F086FD32463B4606
:104E700000F078FCDDE9062300F07EFDDDE900238B
:104E800000F07AFD08B02A462346BDE8F04D00F058
:104E900067BD0B465A463046394600F063FC084A67
:104EA000084B00F0FDF94246534600F05BFC08B0A9
:104EB0002A462346BDE8F04D00F0F2B992190000F1
:104EC000495555555555C5BF012200F08BBF0022ED
:104ED00013461046114600F093BA0000024A002023
:104EE000110700F07FBF000001FDFFFF30380A28E6
:104EF00001D201207047002070470000AEB0FDF7DE
:104F000031FBFFF7CDF9FEF787FEFEF735FEFEF722
:104F1000F5FEFEF779FFFEF757FEFEF721FFFEF7DD
:104F2000CDFEFEF709FEFEF721FEFEF78FFFFEF72E
:104F3000B3FFFEF7C0FFFCF775FBFDF755F8714FA7
:104F40000025386028958DF8745029958DF8785093
:104F50008DF8A8508DF8B050FDF746F806462CA9FC
:104F60006620FCF717FB9DF8B000032802D8FFF776
:104F70008DF907E0042837D0052835D0801FC0B24E
:104F8000FFF77EF9FEF76AFF082400212046FFF7AD
:104F900087F8A4F10800C0B2102320220021FFF7F7
:104FA00011F8641CE4B2702CEFD901210020FFF746
:104FB000B3F804210020FFF749F801215020FFF742
:104FC000D5F84FF4FA644FF47A7800BFFDF70CF887
:104FD000801BA04267D9FDF707F8064629A928A833
:104FE000FFF7ECF820B13CE00120FFF741F9C9E7F9
:104FF000299800F0ABFD81468A46289800F0A6FD6E
:10500000CDE90001CDE9029A3FA241A104A8FBF736
:1050100011F904A8FBF70FFA82B2434604A94348EA
:10502000FEF7A4FA289800F091FDCDE900013A229C
:105030003FA120A8FBF7FEF8102320AA0121202081
:10504000FFF74EF8299800F081FD02460B463AA181
:1050500020A8FBF7EFF8102320AA04212020FFF757
:105060003FF8FEF76FFD034627A236A104A8FBF721
:10507000E1F804A8FBF7DFF982B2434604A92B4804
:10508000FEF774FAFFF7B4FBC3B21FA232A104A863
:10509000FBF7D0F804A8FBF7CEF982B2434604A987
:1050A0002248FEF763FA1DAA2AA91EA8FCF72AFBCC
:1050B0009DF8A80018B1FEF7CDFC2DB10AE09DF8CF
:1050C0007800FEF715FDF8E79DF87400C0B1FEF713
:1050D00021FD01259DF8740090B1FCF785FF39682A
:1050E00040F27712411A9DF874005043B1EBC00FA3
:1050F0007FF66CAF0020FFF7C3F80020FEF70AFD33
:10510000002563E768020020707070707000000076
:1051100025732F73656E736F722F7368743330202D
:10512000252E32665F252E32660A0000C403002059
:105130002563252E326600003A252E32662525523B
:105140004800000025732F73656E736F722F6C69B2
:105150006768742025750A0025732F73656E736F59
:10516000722F766F6C756D652025750A0000000042
:1051700000B5254B21F0004287B09A4203DC0022A3
:10518000134600922BE0214B9A4208D140B94FF0D0
:105190000100FBF79EF9FFF79AFE07B000BD03DBA5
:1051A000FFF792FE07B000BD02AAFFF77FFB10F0E9
:1051B00003014FF001000DD0012914D002291AD0AB
:1051C0000DF1080C9CE80F00FFF734FD07B081F0EB
:1051D000004100BD0DF1080C00909CE80F00FFF7A6
:1051E000FDFD07B000BD0DF1080C9CE80F00FFF7B6
:1051F00021FD07B000BD0DF1080C00909CE80F00E8
:10520000FFF7ECFDE2E70000FB21E93F0000F07F43
:1052100010B500290AD00878002807D0054878443E
:10522000FBF72CFD002801D0002010BD0248784477
:1052300010BD00007E1600007616000021F000422E
:10524000A2F16052B2F5801F01F0004328BFD2F1F5
:105250007F6C0BD95FEA001C43EAC20242EB50703C
:1052600018BF704728BF20F001007047B2F5801FBB
:10527000BCBF184670474FEA410C1CF5001F02D214
:10528000084600F076BD70B500F016FB00000089FE
:10529000FFF7F6BF4FF00040A0F580007047000018
:1052A00010B591EA030F48BF83F0004300F16C830F
:1052B000841A71EB030C05D2121943EB0C03001B8B
:1052C00061EB0C01DFF824E14FEA1154A4EB135C0D
:1052D0001EEA430F18BF9EEA445F73D023EA0E0311
:1052E000DCF1200E21EA045143F4801332D322FA78
:1052F0000CFE10EB0E0023FA0CFE41EB0E01CCF17C
:10530000200E03FA0EFE10EB0E0051F10001B1F574
:10531000801FCCF1200E32D201EB045112FA0EF2B2
:10532000BDE8104058BF7047401C38BF5FEA4202DA
:1053300018BF7047002814BF20F0010041F10001A0
:105340004FEA410313F5001F38BF7047A1F1C04178
:1053500000F000BB012A43EB0302ACF1200CDCF1AE
:105360001F0E32BF4FF0000E23FA0CF310EB0300B8
:1053700041EB0451B4EB115FD0D0A1EB045101F526
:10538000801149085FEA300001EB04510ED350F15F
:10539000000038BF12FA0EFE08D1BDE81040C9E780
:1053A000401C38BF5FEA4202CAD1C3E7BDE81040E3
:1053B0004FEA410313F5001F38BF7047A1F1C04108
:1053C00000F0C8BA9EEA445F08D011EA5E0FBDE85B
:1053D000104004BF01F0004100207047BDE81040BC
:1053E00070B500F069FA00BF64FBBE3E0000E0FF4C
:1053F00002494FF0000000F0C3BC00BF0000F87F7E
:105400002DE9C04130B4DFF8A0C23CEA111418BF46
:105410003CEA131400F0EC8081EA03051CEA111445
:1054200044EAD57418BF1CEA131500F0C780A4EB3A
:1054300005044FF0004545EAC12145EAC32341EA8E
:10544000505143EA525304F17F74994204F50034F9
:105450004FEAC0204FEAC22208BF904200F09C8071
:105460004FEA13650FF24016765D4FEA134506FBCF
:1054700005F7C7F1807706FB07F74FEAD737A7FB99
:1054800003687642C8F58038A7FB06CE38BFA8F17E
:10549000010807FB08E64FF0000EA6FB028CE6FBB6
:1054A00003CEDCF1000CCEF1004E38BFAEF1010EA0
:1054B000A6FB0C584FF000074FF00005E6FB0E87E7
:1054C000A1FB08C6A0FB07CE16EB0E0645F10005B2
:1054D000E1FB076515F1E04E7EBFA4F580345FEA7D
:1054E00046066D4116F1800745F100054FEA172782
:1054F0004FEA066647EA0567A6F1DE46B6F1805F29
:105500004FEA15251FD9384624F0010C05EBC4716C
:10551000BCF1FE6F01EB0C1102D8F0BCBDE80081BC
:1055200024425CBF01F5801E9EEAC47F02D4F0BC19
:10553000BDE80081244238D4F0BCA1F1C041BDE8EF
:10554000004100F007BA4FEAD22242EA43524FEA42
:10555000D323A7FB02864FEAD02040EA415007FB45
:1055600003661EEA0E0F4FEAD12105FB026658BF03
:10557000A6EB0056B6EB00564FEA520E4EEAC37E3B
:1055800018EB0E0E56EB530EBDD518EB02085E411C
:105590007F1C55F10005B6E74FF480154FF000076A
:1055A0004FF000064FF00008ADE7F0BC4FF00000F0
:1055B00001F1C04101F00041BDE8008111EA0C1F7A
:1055C0000CEA131500D00CE013EA0C1F00F0258044
:1055D0004FF00000F0BC81EA030101F00041BDE89A
:1055E0000081F0BCBDE8004181EA030100F0B2B9DE
:1055F000F0BCBDE8004170B500F05EF9097EFC3EEC
:1056000000F007B881EA03014FF0000001F000410B
:10561000704781EA030100F09DB9F0BCBDE800418C
:105620004FF0000021497047FFFDFBF9F7F5F4F258
:10563000F0EEEDEBE9E8E6E4E3E1E0DEDDDBDAD82D
:10564000D7D5D4D3D1D0CFCDCCCBCAC8C7C6C5C48B
:10565000C2C1C0BFBEBDBCBBBAB9B8B7B6B5B4B3A2
:10566000B2B1B0AFAEADACABAAA9A8A8A7A6A5A48D
:10567000A3A3A2A1A09F9F9E9D9C9C9B9A99999851
:105680009797969595949393929191908F8F8E8EF4
:105690008D8C8C8B8B8A8989888887878685858481
:1056A00084838382828181800000FF070000F87F6D
:1056B0004FEA41034FEA5353A3F58063D3F11E032E
:1056C000C8BFD3F1210C0CDD4FF0004242EAC122E9
:1056D00042EA505232FA03FC8CEAE17CACEBE17016
:1056E0007047102BC4BF0020704703F5787CBCF1D5
:1056F000FF3F04D06FF0004282EA2100704770B58E
:1057000000F0DAF84992248000207047F2E710F0A8
:10571000004248BF4042B0FA80F310FA03F10AD0C9
:10572000C3F11D0303F580634FEA415002EB0352BE
:1057300002EBD12170474FF000007047B0FA80F3C0
:1057400010FA03F10AD0C3F11D0303F580634FEA99
:1057500041504FEA035202EBD12170474FF0000055
:1057600070470000DFF848C170B51CEA111E1EBF6B
:105770001CEA13159EEA0C0F95EA0C0F00F06F80DF
:1057800081EA030423EA4C134EEAD47E21EA4C1149
:1057900041F4801143F48013AE44A1FB024CA0FB02
:1057A0000365AEF17F7E361955EB0C05A1FB034C6A
:1057B0004CF10003A0FB021C16EB0C06654153F1F3
:1057C0000003094218BF46F0010613F4007F0BD115
:1057D0004FEA03314FEA0530340341EA155140EAFC
:1057E00016506FF003020AE04FEAC3214FEAC520CA
:1057F000F40241EA555140EA56506FF0020202EBC2
:105800002E4201EB025585EACE710AD05FEA440CC4
:1058100018BF24F0004450F1000041F1000120EADB
:10582000D47040F2FE7C624500D270BDA84214BF25
:105830004FF080444FF04044002E08BF0024BEF1DA
:10584000806FA8BFA1F1C041BDE8704080F28280A6
:105850004FF0000001F1C04101F0004170479EEAA5
:105860000C0F0CEA131518BF95EA0C0F06D04FF079
:10587000000081EA030E0EF0004170BD00F01CF83C
:105880008900013E00F007B800F009B84FEA430C68
:105890005FEA5C5C08D081EA030100F05BB84FEA84
:1058A000410C5FEA5C5CF6D14FF0000001497047A3
:1058B0000000FF070000F87F0EF1020E2EF0030E2D
:1058C0005EF8046B364205D4012A43EB030515F557
:1058D000001F12D8012841EB010C1CF5001F0CD849
:1058E0000ED14FEAD17C15F5001F0CEB4C0C0CF1DE
:1058F000020C08BF4CEBD37C04E04FF0080C01E035
:105900004FEAD37C0CEB4C0526FA05F606F00706A9
:10591000B6F1040C06D20EEB860CBDE870404CF0DC
:10592000010C6047DFE80CF0090B02024FF0004168
:105930004FF00000A1F5002170BD19461046012866
:1059400051EB010418BFD4F5001484BF002001F00E
:10595000004170BD0808A0F500114FEA3101704701
:1059600091EA030F10B581F000413FF5A1AC83F03F
:10597000004300F009B8000010B591EA030F48BFDA
:1059800083F000433FF594AC841A71EB030C07D20B
:1059900012198CF0004C43EB0C03001B61EB0C0163
:1059A000DFF8A4E14FEA1154A4EB135C1EEA430FA5
:1059B00018BF9EEA445F00F0B08023EA6E035242B3
:1059C00021EA0451C3EB6E0338BF5B1EDCF1200EED
:1059D00025D322FA0CFE10EB0E0043FA0CFE41EB2D
:1059E0000E01CCF1200E03FA0EFE10EB0E0051F169
:1059F0000001CCF1200E29D412FA0EF201EB045171
:105A0000BDE8104058BF7047401C1CBFB2F1004FAA
:105A1000704700280CBF491C20F00100704712EBB2
:105A2000020E43EB030218BF4FF0010E4EEA420292
:105A3000ACF1200CDCF11E0E54D943FA0CFE10EB35
:105A40000E0051F1FF31CCF11E0ED5D50EF1010E35
:105A500012FA0EFE404141EB010101EB445C5FEAAA
:105A60005C5C10D910EBDE7001EB045138BFBEF165
:105A7000004FBDE8104018BF704700280CBF491CFC
:105A800020F00100704730D24FEAD42C11F50011FC
:105A900024F400641BD0B1FA81F20B3AA41AA41EBC
:105AA000D2F12003914030FA03F31943904001EB07
:105AB000CC71002C01EB0451BDE81040A8BF704729
:105AC00001F1C0414FF0000001F000417047B0FA11
:105AD00080F310FA03F100D110BDE41A173C480519
